S028000041546D65676131365F4E6F6B6961353131305F446973706C61795F496D6167652E73726563D7
S11300000C942A000C943F000C943F000C943F0085
S11300100C943F000C943F000C943F000C943F0060
S11300200C943F000C943F000C943F000C943F0050
S11300300C943F000C943F000C943F000C943F0040
S11300400C943F000C943F000C943F000C943F0030
S11300500C943F0011241FBECFE5D4E0DEBFCDBF1A
S113006014E0A0E6B0E0E2ECF1E002C005900D92ED
S1130070A035B107D9F70E94AA000C94DF000C94B4
S11300800000CF93C82FC1980E94CF008C2F0E94EC
S1130090DB00C19A0E94D100CF910895C0982FEF40
S11300A080E792E0215080409040E1F700C00000DA
S11300B0C09A08950E944E0081E20E94410080ECA3
S11300C00E94410087E00E94410083E10E944100B8
S11300D080E20E9441008CE00E9441000895CF9389
S11300E0C62F0E9441008C2F0E944100CF91089599
S11300F0CF93DF930E94CF00C19AC8EFD1E080E094
S11301000E94DB0021972097D1F7C1980E94D1006B
S1130110DF91CF9108950F931F93CF93DF93D82F3F
S1130120C92F0E94CF00C19A0D2F1C2FC0E0D0E030
S1130130F80181918F010E94DB002196C83FF1E014
S1130140DF07B1F7C1980E94D100DF91CF911F91D1
S11301500F9108950E94D3000E945A000E947800D3
S113016060E880E40E946F0088E592E00E948B00C2
S11301702FEF89E698E1215080409040E1F700C0DC
S1130180000080E690E00E948B002FEF89E698E162
S1130190215080409040E1F700C00000E5CFC498B2
S11301A00895C49A089583EB87BBC09ABE98C49AF5
S11301B081E58DB908958FB9779BFECF0895F894A2
S10501C0FFCF6B
S11301C20000000000000000000000000000000029
S11301D20000000000000000000000000000000019
S11301E20000000000000000000080C0E0E0F0F029
S11301F220000000000000000000000000000000D9
S113020200000000000000000000000000000000E8
S113021200000000000000000000000000000000D8
S113022200000000000000000000000000000000C8
S11302320080C0C0E0E0E0E0E0E0C0C0C0DEDFCFAC
S1130242EFE7E3E1E0E0E0C0C0800000000000006E
S11302520000000000000000000000000000000098
S11302620000000000000000000000000000000088
S11302720000000000000000000000000000000078
S11302820000F0FCFFFFFFFFFFFFFFFFFFFFFFFF88
S1130292FFFFFFFFFFFFFFFFFFFFFF1F0703010039
S11302A20000000000000000000000000000000048
S11302B20000000000000000000000000000000038
S11302C20000000000000000000000000000000028
S11302D20000000000001FFFFFFFFFFFFFFFFFFF02
S11302E2FFFFFFFFFFFFFFFFFFFFFFFFFFFFFFFC1B
S11302F2F0E0C080000000000000000000000000E8
S113030200000000000000000000000000000000E7
S113031200000000000000000000000000000000D7
S1130322000000000000000000000000030F1F3F57
S11303327FFFFFFFFFFFFFFFFFFFFFFFFFFFFFFF47
S1130342FFFFFF7F3F0F07010000000000000000D5
S11303520000000000000000000000000000000097
S11303620000000000000000000000000000000087
S11303720000000000000000000000000000000077
S1130382000000000000000103070707070303033E
S11303920707070703010000000000000000000037
S11303A20000000000000000000000000000000047
S11303B20000000000000000000000000000000037
S11303C20000000000000000000000000000000027
S11303D20000000000707030B0B89898D8D8D8984F
S11303E21818181898D8D8D8D89898B0307070704F
S11303F200000000000000000000000000000000F7
S113040200000000000000000000000000000000E6
S113041200000000000000000000000000000000D6
S113042200000000000000000000010307070303AE
S113043203030FFFFFFEFEFFFFFF0F030303070784
S1130442070301000000000000000000000000009B
S11304520000000000000000000000000000000096
S11304620000000000000000000000000000000086
S11304720000000000000000000000000000000076
S113048200000000000000013FFFFFFF3F010000E9
S11304920000000000000000000000000000000056
S11304A20000000000000000000000000000000046
S11304B20000000000000000000000000000000036
S11304C20000000000000000000000000000000026
S11304D200000000000000000000000000071F07E9
S11304E20000000000000000000000000000000006
S11304F200000000000000000000000000000000F6
S1130502000000000000000000000103030303FFD9
S1130512FFFF030303030100000000001133333320
S113052233333333333333110000000000003F3FD1
S113053233333333333333F3F1000000000000FF6D
S1130542FF00000000000000000000000000F1F3C2
S11305523333333333333333F3F100000000000019
S1130562000000030303000000000000000000007C
S11305720103030303030303030303010000000055
S11305820000020303030303030303030300000045
S11305920000000303030303030303030301000036
S11305A20000030300000000000000000303000039
S9030000FC
