S029000041546D65676131365F496E746572666163696E675F746F5F4E6F6B6961353131302E7372656342
S11300000C942A000C943F000C943F000C943F0085
S11300100C943F000C943F000C943F000C943F0060
S11300200C943F000C943F000C943F000C943F0050
S11300300C943F000C943F000C943F000C943F0040
S11300400C943F000C943F000C943F000C943F0030
S11300500C943F0011241FBECFE5D4E0DEBFCDBF1A
S113006012E0A0E6B0E0E4E0F2E002C005900D92F8
S1130070A035B107D9F70E94DF000C9400010C945D
S11300800000CF93C82FC1980E94F0008C2F0E94CB
S1130090FC00C19A0E94F200CF9108958F929F9222
S11300A0AF92BF92CF92DF92EF92FF920F931F9382
S11300B0CF93DF936C01C19A0E94F000F601019086
S11300C00020E9F731975F01AC18BD081A141B042E
S11300D054F5E12CF12C812C912C1FC0F801808166
S11300E090E08097FC01EE0FFF1FEE0FFF1FE80F5B
S11300F0F91FEC0FFD1FE059FF4F80810E94FC00A7
S11301002196C530D10551F780E00E94FC00FFEF35
S1130110EF1AFF0AAE14BF0431F0C82DD92D8601A1
S11301200E0D1F1DDBCF0E94F200DF91CF911F91B6
S11301300F91FF90EF90DF90CF90BF90AF909F9082
S11301408F900895C0982FEF80E792E0215080406F
S11301509040E1F700C00000C09A08950E94A200F8
S113016081E20E94410080EC0E94410087E00E94ED
S1130170410083E10E94410080E20E9441008CE042
S11301800E9441000895CF93C62F0E9441008C2FF6
S11301900E944100CF910895CF93DF930E94F00015
S11301A0C19AC8EFD1E080E00E94FC00219720971B
S11301B0D1F7C1980E94F200DF91CF9108950E9477
S11301C0F4000E94AE000E94CC0060E880E40E942B
S11301D0C30080E690E00E944E0080E090E0089525
S11301E0C4980895C49A089583EB87BBC09ABE98B7
S11301F0C49A81E58DB908958FB9779BFECF089590
S1070200F894FFCF9C
S1130204456C656374726F6E696357696E677300D6
S1130214000000000000005F000000070007001455
S11302247F147F14242A7F2A122313086462364914
S11302345522500005030000001C22410000412205
S11302441C0014083E081408083E08080050300036
S11302540008080808080060600000201008040270
S11302643E5149453E00427F400042615149462186
S113027441454B311814127F1027454545393C4AF2
S11302844949300171090503364949493606494942
S1130294291E003636000000563600000814224198
S11302A40014141414140041221408020151090600
S11302B4324979413E7E1111117E7F494949363EC6
S11302C4414141227F4141221C7F494949417F09DF
S11302D40909013E4149497A7F0808087F00417FA2
S11302E441002040413F017F081422417F404040A7
S11302F4407F020C027F7F0408107F3E4141413E4F
S11303047F090909063E4151215E7F0919294646A0
S11303144949493101017F01013F4040403F1F20C9
S113032440201F3F4038403F63140814630708709B
S113033408076151494543007F4141000204081004
S1130344200041417F000402010204404040404037
S1130354000102040020545454787F48444438383B
S113036444444420384444487F3854545418087E40
S11303740901020C5252523E7F0804047800447D61
S113038440002040443D007F1028440000417F4049
S1130394007C041804787C08040478384444443801
S11303A47C14141408081414187C7C0804040848E5
S11303B454545420043F4440203C4040207C1C209E
S11303C440201C3C4030403C44281028440C5050ED
S11303D4503C4464544C44000836410000007F00FF
S11303E40000413608001008081008784641467891
S9030000FC
